{
  "_format": "hh-sol-artifact-1",
  "contractName": "SKYMXToken",
  "sourceName": "contracts/SKYMXToken.sol",
  "abi": [
    {
      "inputs": [],
      "stateMutability": "nonpayable",
      "type": "constructor"
    },
    {
      "anonymous": false,
      "inputs": [
        {
          "indexed": true,
          "internalType": "address",
          "name": "owner",
          "type": "address"
        },
        {
          "indexed": true,
          "internalType": "address",
          "name": "spender",
          "type": "address"
        },
        {
          "indexed": false,
          "internalType": "uint256",
          "name": "value",
          "type": "uint256"
        }
      ],
      "name": "Approval",
      "type": "event"
    },
    {
      "anonymous": false,
      "inputs": [
        {
          "indexed": true,
          "internalType": "address",
          "name": "previousOwner",
          "type": "address"
        },
        {
          "indexed": true,
          "internalType": "address",
          "name": "newOwner",
          "type": "address"
        }
      ],
      "name": "OwnershipTransferred",
      "type": "event"
    },
    {
      "anonymous": false,
      "inputs": [
        {
          "indexed": true,
          "internalType": "address",
          "name": "from",
          "type": "address"
        },
        {
          "indexed": true,
          "internalType": "address",
          "name": "to",
          "type": "address"
        },
        {
          "indexed": false,
          "internalType": "uint256",
          "name": "value",
          "type": "uint256"
        }
      ],
      "name": "Transfer",
      "type": "event"
    },
    {
      "inputs": [
        {
          "internalType": "address",
          "name": "owner",
          "type": "address"
        },
        {
          "internalType": "address",
          "name": "spender",
          "type": "address"
        }
      ],
      "name": "allowance",
      "outputs": [
        {
          "internalType": "uint256",
          "name": "",
          "type": "uint256"
        }
      ],
      "stateMutability": "view",
      "type": "function"
    },
    {
      "inputs": [
        {
          "internalType": "address",
          "name": "spender",
          "type": "address"
        },
        {
          "internalType": "uint256",
          "name": "amount",
          "type": "uint256"
        }
      ],
      "name": "approve",
      "outputs": [
        {
          "internalType": "bool",
          "name": "",
          "type": "bool"
        }
      ],
      "stateMutability": "nonpayable",
      "type": "function"
    },
    {
      "inputs": [
        {
          "internalType": "address",
          "name": "account",
          "type": "address"
        }
      ],
      "name": "balanceOf",
      "outputs": [
        {
          "internalType": "uint256",
          "name": "",
          "type": "uint256"
        }
      ],
      "stateMutability": "view",
      "type": "function"
    },
    {
      "inputs": [
        {
          "internalType": "uint256",
          "name": "amount",
          "type": "uint256"
        }
      ],
      "name": "burn",
      "outputs": [],
      "stateMutability": "nonpayable",
      "type": "function"
    },
    {
      "inputs": [],
      "name": "decimals",
      "outputs": [
        {
          "internalType": "uint8",
          "name": "",
          "type": "uint8"
        }
      ],
      "stateMutability": "view",
      "type": "function"
    },
    {
      "inputs": [
        {
          "internalType": "address",
          "name": "spender",
          "type": "address"
        },
        {
          "internalType": "uint256",
          "name": "subtractedValue",
          "type": "uint256"
        }
      ],
      "name": "decreaseAllowance",
      "outputs": [
        {
          "internalType": "bool",
          "name": "",
          "type": "bool"
        }
      ],
      "stateMutability": "nonpayable",
      "type": "function"
    },
    {
      "inputs": [
        {
          "internalType": "address",
          "name": "spender",
          "type": "address"
        },
        {
          "internalType": "uint256",
          "name": "addedValue",
          "type": "uint256"
        }
      ],
      "name": "increaseAllowance",
      "outputs": [
        {
          "internalType": "bool",
          "name": "",
          "type": "bool"
        }
      ],
      "stateMutability": "nonpayable",
      "type": "function"
    },
    {
      "inputs": [
        {
          "internalType": "address",
          "name": "to",
          "type": "address"
        },
        {
          "internalType": "uint256",
          "name": "amount",
          "type": "uint256"
        }
      ],
      "name": "mint",
      "outputs": [],
      "stateMutability": "nonpayable",
      "type": "function"
    },
    {
      "inputs": [],
      "name": "name",
      "outputs": [
        {
          "internalType": "string",
          "name": "",
          "type": "string"
        }
      ],
      "stateMutability": "view",
      "type": "function"
    },
    {
      "inputs": [],
      "name": "owner",
      "outputs": [
        {
          "internalType": "address",
          "name": "",
          "type": "address"
        }
      ],
      "stateMutability": "view",
      "type": "function"
    },
    {
      "inputs": [],
      "name": "renounceOwnership",
      "outputs": [],
      "stateMutability": "nonpayable",
      "type": "function"
    },
    {
      "inputs": [],
      "name": "symbol",
      "outputs": [
        {
          "internalType": "string",
          "name": "",
          "type": "string"
        }
      ],
      "stateMutability": "view",
      "type": "function"
    },
    {
      "inputs": [],
      "name": "totalSupply",
      "outputs": [
        {
          "internalType": "uint256",
          "name": "",
          "type": "uint256"
        }
      ],
      "stateMutability": "view",
      "type": "function"
    },
    {
      "inputs": [
        {
          "internalType": "address",
          "name": "to",
          "type": "address"
        },
        {
          "internalType": "uint256",
          "name": "amount",
          "type": "uint256"
        }
      ],
      "name": "transfer",
      "outputs": [
        {
          "internalType": "bool",
          "name": "",
          "type": "bool"
        }
      ],
      "stateMutability": "nonpayable",
      "type": "function"
    },
    {
      "inputs": [
        {
          "internalType": "address",
          "name": "from",
          "type": "address"
        },
        {
          "internalType": "address",
          "name": "to",
          "type": "address"
        },
        {
          "internalType": "uint256",
          "name": "amount",
          "type": "uint256"
        }
      ],
      "name": "transferFrom",
      "outputs": [
        {
          "internalType": "bool",
          "name": "",
          "type": "bool"
        }
      ],
      "stateMutability": "nonpayable",
      "type": "function"
    },
    {
      "inputs": [
        {
          "internalType": "address",
          "name": "newOwner",
          "type": "address"
        }
      ],
      "name": "transferOwnership",
      "outputs": [],
      "stateMutability": "nonpayable",
      "type": "function"
    }
  ],
  "bytecode": "0x608060405234801561001057600080fd5b506040518060400160405280600b81526020017f534b594d5820546f6b656e0000000000000000000000000000000000000000008152506040518060400160405280600581526020017f534b594d58000000000000000000000000000000000000000000000000000000815250816003908161008c919061058f565b50806004908161009c919061058f565b5050506100bb6100b061010560201b60201c565b61010d60201b60201c565b6100e46100cc61010560201b60201c565b6b033b2e3c9fd0803ce80000006101d360201b60201c565b6101006100f561010560201b60201c565b61010d60201b60201c565b61076b565b600033905090565b6000600560009054906101000a900473ffffffffffffffffffffffffffffffffffffffff16905081600560006101000a81548173ffffffffffffffffffffffffffffffffffffffff021916908373ffffffffffffffffffffffffffffffffffffffff1602179055508173ffffffffffffffffffffffffffffffffffffffff168173ffffffffffffffffffffffffffffffffffffffff167f8be0079c531659141344cd1fd0a4f28419497f9722a3daafe3b4186f6b6457e060405160405180910390a35050565b600073ffffffffffffffffffffffffffffffffffffffff168273ffffffffffffffffffffffffffffffffffffffff1603610242576040517f08c379a0000000000000000000000000000000000000000000000000000000008152600401610239906106be565b60405180910390fd5b6102546000838361033560201b60201c565b8060026000828254610266919061070d565b92505081905550806000808473ffffffffffffffffffffffffffffffffffffffff1673ffffffffffffffffffffffffffffffffffffffff168152602001908152602001600020600082825401925050819055508173ffffffffffffffffffffffffffffffffffffffff16600073ffffffffffffffffffffffffffffffffffffffff167fddf252ad1be2c89b69c2b068fc378daa952ba7f163c4a11628f55a4df523b3ef836040516103179190610750565b60405180910390a36103316000838361033a60201b60201c565b5050565b505050565b505050565b600081519050919050565b7f4e487b7100000000000000000000000000000000000000000000000000000000600052604160045260246000fd5b7f4e487b7100000000000000000000000000000000000000000000000000000000600052602260045260246000fd5b600060028204905060018216806103c057607f821691505b6020821081036103d3576103d2610379565b5b50919050565b60008190508160005260206000209050919050565b60006020601f8301049050919050565b600082821b905092915050565b60006008830261043b7fffffffffffffffffffffffffffffffffffffffffffffffffffffffffffffffff826103fe565b61044586836103fe565b95508019841693508086168417925050509392505050565b6000819050919050565b6000819050919050565b600061048c6104876104828461045d565b610467565b61045d565b9050919050565b6000819050919050565b6104a683610471565b6104ba6104b282610493565b84845461040b565b825550505050565b600090565b6104cf6104c2565b6104da81848461049d565b505050565b5b818110156104fe576104f36000826104c7565b6001810190506104e0565b5050565b601f82111561054357610514816103d9565b61051d846103ee565b8101602085101561052c578190505b610540610538856103ee565b8301826104df565b50505b505050565b600082821c905092915050565b600061056660001984600802610548565b1980831691505092915050565b600061057f8383610555565b9150826002028217905092915050565b6105988261033f565b67ffffffffffffffff8111156105b1576105b061034a565b5b6105bb82546103a8565b6105c6828285610502565b600060209050601f8311600181146105f957600084156105e7578287015190505b6105f18582610573565b865550610659565b601f198416610607866103d9565b60005b8281101561062f5784890151825560018201915060208501945060208101905061060a565b8683101561064c5784890151610648601f891682610555565b8355505b6001600288020188555050505b505050505050565b600082825260208201905092915050565b7f45524332303a206d696e7420746f20746865207a65726f206164647265737300600082015250565b60006106a8601f83610661565b91506106b382610672565b602082019050919050565b600060208201905081810360008301526106d78161069b565b9050919050565b7f4e487b7100000000000000000000000000000000000000000000000000000000600052601160045260246000fd5b60006107188261045d565b91506107238361045d565b925082820190508082111561073b5761073a6106de565b5b92915050565b61074a8161045d565b82525050565b60006020820190506107656000830184610741565b92915050565b611b398061077a6000396000f3fe608060405234801561001057600080fd5b50600436106101005760003560e01c806370a0823111610097578063a457c2d711610066578063a457c2d71461029d578063a9059cbb146102cd578063dd62ed3e146102fd578063f2fde38b1461032d57610100565b806370a0823114610227578063715018a6146102575780638da5cb5b1461026157806395d89b411461027f57610100565b8063313ce567116100d3578063313ce567146101a157806339509351146101bf57806340c10f19146101ef57806342966c681461020b57610100565b806306fdde0314610105578063095ea7b31461012357806318160ddd1461015357806323b872dd14610171575b600080fd5b61010d610349565b60405161011a9190611131565b60405180910390f35b61013d600480360381019061013891906111ec565b6103db565b60405161014a9190611247565b60405180910390f35b61015b6103fe565b6040516101689190611271565b60405180910390f35b61018b6004803603810190610186919061128c565b610408565b6040516101989190611247565b60405180910390f35b6101a9610437565b6040516101b691906112fb565b60405180910390f35b6101d960048036038101906101d491906111ec565b610440565b6040516101e69190611247565b60405180910390f35b610209600480360381019061020491906111ec565b610477565b005b61022560048036038101906102209190611316565b61048d565b005b610241600480360381019061023c9190611343565b6104a1565b60405161024e9190611271565b60405180910390f35b61025f6104e9565b005b6102696104fd565b604051610276919061137f565b60405180910390f35b610287610527565b6040516102949190611131565b60405180910390f35b6102b760048036038101906102b291906111ec565b6105b9565b6040516102c49190611247565b60405180910390f35b6102e760048036038101906102e291906111ec565b610630565b6040516102f49190611247565b60405180910390f35b6103176004803603810190610312919061139a565b610653565b6040516103249190611271565b60405180910390f35b61034760048036038101906103429190611343565b6106da565b005b60606003805461035890611409565b80601f016020809104026020016040519081016040528092919081815260200182805461038490611409565b80156103d15780601f106103a6576101008083540402835291602001916103d1565b820191906000526020600020905b8154815290600101906020018083116103b457829003601f168201915b5050505050905090565b6000806103e661075d565b90506103f3818585610765565b600191505092915050565b6000600254905090565b60008061041361075d565b905061042085828561092e565b61042b8585856109ba565b60019150509392505050565b60006012905090565b60008061044b61075d565b905061046c81858561045d8589610653565b6104679190611469565b610765565b600191505092915050565b61047f610c30565b6104898282610cae565b5050565b61049e61049861075d565b82610e04565b50565b60008060008373ffffffffffffffffffffffffffffffffffffffff1673ffffffffffffffffffffffffffffffffffffffff168152602001908152602001600020549050919050565b6104f1610c30565b6104fb6000610fd1565b565b6000600560009054906101000a900473ffffffffffffffffffffffffffffffffffffffff16905090565b60606004805461053690611409565b80601f016020809104026020016040519081016040528092919081815260200182805461056290611409565b80156105af5780601f10610584576101008083540402835291602001916105af565b820191906000526020600020905b81548152906001019060200180831161059257829003601f168201915b5050505050905090565b6000806105c461075d565b905060006105d28286610653565b905083811015610617576040517f08c379a000000000000000000000000000000000000000000000000000000000815260040161060e9061150f565b60405180910390fd5b6106248286868403610765565b60019250505092915050565b60008061063b61075d565b90506106488185856109ba565b600191505092915050565b6000600160008473ffffffffffffffffffffffffffffffffffffffff1673ffffffffffffffffffffffffffffffffffffffff16815260200190815260200160002060008373ffffffffffffffffffffffffffffffffffffffff1673ffffffffffffffffffffffffffffffffffffffff16815260200190815260200160002054905092915050565b6106e2610c30565b600073ffffffffffffffffffffffffffffffffffffffff168173ffffffffffffffffffffffffffffffffffffffff1603610751576040517f08c379a0000000000000000000000000000000000000000000000000000000008152600401610748906115a1565b60405180910390fd5b61075a81610fd1565b50565b600033905090565b600073ffffffffffffffffffffffffffffffffffffffff168373ffffffffffffffffffffffffffffffffffffffff16036107d4576040517f08c379a00000000000000000000000000000000000000000000000000000000081526004016107cb90611633565b60405180910390fd5b600073ffffffffffffffffffffffffffffffffffffffff168273ffffffffffffffffffffffffffffffffffffffff1603610843576040517f08c379a000000000000000000000000000000000000000000000000000000000815260040161083a906116c5565b60405180910390fd5b80600160008573ffffffffffffffffffffffffffffffffffffffff1673ffffffffffffffffffffffffffffffffffffffff16815260200190815260200160002060008473ffffffffffffffffffffffffffffffffffffffff1673ffffffffffffffffffffffffffffffffffffffff168152602001908152602001600020819055508173ffffffffffffffffffffffffffffffffffffffff168373ffffffffffffffffffffffffffffffffffffffff167f8c5be1e5ebec7d5bd14f71427d1e84f3dd0314c0f7b2291e5b200ac8c7c3b925836040516109219190611271565b60405180910390a3505050565b600061093a8484610653565b90507fffffffffffffffffffffffffffffffffffffffffffffffffffffffffffffffff81146109b457818110156109a6576040517f08c379a000000000000000000000000000000000000000000000000000000000815260040161099d90611731565b60405180910390fd5b6109b38484848403610765565b5b50505050565b600073ffffffffffffffffffffffffffffffffffffffff168373ffffffffffffffffffffffffffffffffffffffff1603610a29576040517f08c379a0000000000000000000000000000000000000000000000000000000008152600401610a20906117c3565b60405180910390fd5b600073ffffffffffffffffffffffffffffffffffffffff168273ffffffffffffffffffffffffffffffffffffffff1603610a98576040517f08c379a0000000000000000000000000000000000000000000000000000000008152600401610a8f90611855565b60405180910390fd5b610aa3838383611097565b60008060008573ffffffffffffffffffffffffffffffffffffffff1673ffffffffffffffffffffffffffffffffffffffff16815260200190815260200160002054905081811015610b29576040517f08c379a0000000000000000000000000000000000000000000000000000000008152600401610b20906118e7565b60405180910390fd5b8181036000808673ffffffffffffffffffffffffffffffffffffffff1673ffffffffffffffffffffffffffffffffffffffff16815260200190815260200160002081905550816000808573ffffffffffffffffffffffffffffffffffffffff1673ffffffffffffffffffffffffffffffffffffffff168152602001908152602001600020600082825401925050819055508273ffffffffffffffffffffffffffffffffffffffff168473ffffffffffffffffffffffffffffffffffffffff167fddf252ad1be2c89b69c2b068fc378daa952ba7f163c4a11628f55a4df523b3ef84604051610c179190611271565b60405180910390a3610c2a84848461109c565b50505050565b610c3861075d565b73ffffffffffffffffffffffffffffffffffffffff16610c566104fd565b73ffffffffffffffffffffffffffffffffffffffff1614610cac576040517f08c379a0000000000000000000000000000000000000000000000000000000008152600401610ca390611953565b60405180910390fd5b565b600073ffffffffffffffffffffffffffffffffffffffff168273ffffffffffffffffffffffffffffffffffffffff1603610d1d576040517f08c379a0000000000000000000000000000000000000000000000000000000008152600401610d14906119bf565b60405180910390fd5b610d2960008383611097565b8060026000828254610d3b9190611469565b92505081905550806000808473ffffffffffffffffffffffffffffffffffffffff1673ffffffffffffffffffffffffffffffffffffffff168152602001908152602001600020600082825401925050819055508173ffffffffffffffffffffffffffffffffffffffff16600073ffffffffffffffffffffffffffffffffffffffff167fddf252ad1be2c89b69c2b068fc378daa952ba7f163c4a11628f55a4df523b3ef83604051610dec9190611271565b60405180910390a3610e006000838361109c565b5050565b600073ffffffffffffffffffffffffffffffffffffffff168273ffffffffffffffffffffffffffffffffffffffff1603610e73576040517f08c379a0000000000000000000000000000000000000000000000000000000008152600401610e6a90611a51565b60405180910390fd5b610e7f82600083611097565b60008060008473ffffffffffffffffffffffffffffffffffffffff1673ffffffffffffffffffffffffffffffffffffffff16815260200190815260200160002054905081811015610f05576040517f08c379a0000000000000000000000000000000000000000000000000000000008152600401610efc90611ae3565b60405180910390fd5b8181036000808573ffffffffffffffffffffffffffffffffffffffff1673ffffffffffffffffffffffffffffffffffffffff1681526020019081526020016000208190555081600260008282540392505081905550600073ffffffffffffffffffffffffffffffffffffffff168373ffffffffffffffffffffffffffffffffffffffff167fddf252ad1be2c89b69c2b068fc378daa952ba7f163c4a11628f55a4df523b3ef84604051610fb89190611271565b60405180910390a3610fcc8360008461109c565b505050565b6000600560009054906101000a900473ffffffffffffffffffffffffffffffffffffffff16905081600560006101000a81548173ffffffffffffffffffffffffffffffffffffffff021916908373ffffffffffffffffffffffffffffffffffffffff1602179055508173ffffffffffffffffffffffffffffffffffffffff168173ffffffffffffffffffffffffffffffffffffffff167f8be0079c531659141344cd1fd0a4f28419497f9722a3daafe3b4186f6b6457e060405160405180910390a35050565b505050565b505050565b600081519050919050565b600082825260208201905092915050565b60005b838110156110db5780820151818401526020810190506110c0565b60008484015250505050565b6000601f19601f8301169050919050565b6000611103826110a1565b61110d81856110ac565b935061111d8185602086016110bd565b611126816110e7565b840191505092915050565b6000602082019050818103600083015261114b81846110f8565b905092915050565b600080fd5b600073ffffffffffffffffffffffffffffffffffffffff82169050919050565b600061118382611158565b9050919050565b61119381611178565b811461119e57600080fd5b50565b6000813590506111b08161118a565b92915050565b6000819050919050565b6111c9816111b6565b81146111d457600080fd5b50565b6000813590506111e6816111c0565b92915050565b6000806040838503121561120357611202611153565b5b6000611211858286016111a1565b9250506020611222858286016111d7565b9150509250929050565b60008115159050919050565b6112418161122c565b82525050565b600060208201905061125c6000830184611238565b92915050565b61126b816111b6565b82525050565b60006020820190506112866000830184611262565b92915050565b6000806000606084860312156112a5576112a4611153565b5b60006112b3868287016111a1565b93505060206112c4868287016111a1565b92505060406112d5868287016111d7565b9150509250925092565b600060ff82169050919050565b6112f5816112df565b82525050565b600060208201905061131060008301846112ec565b92915050565b60006020828403121561132c5761132b611153565b5b600061133a848285016111d7565b91505092915050565b60006020828403121561135957611358611153565b5b6000611367848285016111a1565b91505092915050565b61137981611178565b82525050565b60006020820190506113946000830184611370565b92915050565b600080604083850312156113b1576113b0611153565b5b60006113bf858286016111a1565b92505060206113d0858286016111a1565b9150509250929050565b7f4e487b7100000000000000000000000000000000000000000000000000000000600052602260045260246000fd5b6000600282049050600182168061142157607f821691505b602082108103611434576114336113da565b5b50919050565b7f4e487b7100000000000000000000000000000000000000000000000000000000600052601160045260246000fd5b6000611474826111b6565b915061147f836111b6565b92508282019050808211156114975761149661143a565b5b92915050565b7f45524332303a2064656372656173656420616c6c6f77616e63652062656c6f7760008201527f207a65726f000000000000000000000000000000000000000000000000000000602082015250565b60006114f96025836110ac565b91506115048261149d565b604082019050919050565b60006020820190508181036000830152611528816114ec565b9050919050565b7f4f776e61626c653a206e6577206f776e657220697320746865207a65726f206160008201527f6464726573730000000000000000000000000000000000000000000000000000602082015250565b600061158b6026836110ac565b91506115968261152f565b604082019050919050565b600060208201905081810360008301526115ba8161157e565b9050919050565b7f45524332303a20617070726f76652066726f6d20746865207a65726f2061646460008201527f7265737300000000000000000000000000000000000000000000000000000000602082015250565b600061161d6024836110ac565b9150611628826115c1565b604082019050919050565b6000602082019050818103600083015261164c81611610565b9050919050565b7f45524332303a20617070726f766520746f20746865207a65726f20616464726560008201527f7373000000000000000000000000000000000000000000000000000000000000602082015250565b60006116af6022836110ac565b91506116ba82611653565b604082019050919050565b600060208201905081810360008301526116de816116a2565b9050919050565b7f45524332303a20696e73756666696369656e7420616c6c6f77616e6365000000600082015250565b600061171b601d836110ac565b9150611726826116e5565b602082019050919050565b6000602082019050818103600083015261174a8161170e565b9050919050565b7f45524332303a207472616e736665722066726f6d20746865207a65726f20616460008201527f6472657373000000000000000000000000000000000000000000000000000000602082015250565b60006117ad6025836110ac565b91506117b882611751565b604082019050919050565b600060208201905081810360008301526117dc816117a0565b9050919050565b7f45524332303a207472616e7366657220746f20746865207a65726f206164647260008201527f6573730000000000000000000000000000000000000000000000000000000000602082015250565b600061183f6023836110ac565b915061184a826117e3565b604082019050919050565b6000602082019050818103600083015261186e81611832565b9050919050565b7f45524332303a207472616e7366657220616d6f756e742065786365656473206260008201527f616c616e63650000000000000000000000000000000000000000000000000000602082015250565b60006118d16026836110ac565b91506118dc82611875565b604082019050919050565b60006020820190508181036000830152611900816118c4565b9050919050565b7f4f776e61626c653a2063616c6c6572206973206e6f7420746865206f776e6572600082015250565b600061193d6020836110ac565b915061194882611907565b602082019050919050565b6000602082019050818103600083015261196c81611930565b9050919050565b7f45524332303a206d696e7420746f20746865207a65726f206164647265737300600082015250565b60006119a9601f836110ac565b91506119b482611973565b602082019050919050565b600060208201905081810360008301526119d88161199c565b9050919050565b7f45524332303a206275726e2066726f6d20746865207a65726f2061646472657360008201527f7300000000000000000000000000000000000000000000000000000000000000602082015250565b6000611a3b6021836110ac565b9150611a46826119df565b604082019050919050565b60006020820190508181036000830152611a6a81611a2e565b9050919050565b7f45524332303a206275726e20616d6f756e7420657863656564732062616c616e60008201527f6365000000000000000000000000000000000000000000000000000000000000602082015250565b6000611acd6022836110ac565b9150611ad882611a71565b604082019050919050565b60006020820190508181036000830152611afc81611ac0565b905091905056fea26469706673582212207be6ff863528cd914e9a2acec47afecf0270ec53493574d48bb32b8f4aa6f08f64736f6c634300081c0033",
  "linkReferences": {},
  "deployedLinkReferences": {}
}