{
  "_format": "hh-sol-artifact-1",
  "contractName": "SKYMXPresale",
  "sourceName": "contracts/SKYMXPresale.sol",
  "abi": [
    {
      "inputs": [
        {
          "internalType": "address",
          "name": "_token",
          "type": "address"
        }
      ],
      "stateMutability": "nonpayable",
      "type": "constructor"
    },
    {
      "anonymous": false,
      "inputs": [
        {
          "indexed": true,
          "internalType": "address",
          "name": "previousOwner",
          "type": "address"
        },
        {
          "indexed": true,
          "internalType": "address",
          "name": "newOwner",
          "type": "address"
        }
      ],
      "name": "OwnershipTransferred",
      "type": "event"
    },
    {
      "anonymous": false,
      "inputs": [
        {
          "indexed": false,
          "internalType": "bool",
          "name": "isActive",
          "type": "bool"
        }
      ],
      "name": "PresaleStatusChanged",
      "type": "event"
    },
    {
      "anonymous": false,
      "inputs": [
        {
          "indexed": true,
          "internalType": "address",
          "name": "user",
          "type": "address"
        },
        {
          "indexed": false,
          "internalType": "string",
          "name": "code",
          "type": "string"
        }
      ],
      "name": "ReferralApplied",
      "type": "event"
    },
    {
      "anonymous": false,
      "inputs": [
        {
          "indexed": true,
          "internalType": "address",
          "name": "buyer",
          "type": "address"
        },
        {
          "indexed": false,
          "internalType": "uint256",
          "name": "ethAmount",
          "type": "uint256"
        },
        {
          "indexed": false,
          "internalType": "uint256",
          "name": "tokenAmount",
          "type": "uint256"
        }
      ],
      "name": "TokensPurchased",
      "type": "event"
    },
    {
      "inputs": [],
      "name": "PRESALE_SUPPLY",
      "outputs": [
        {
          "internalType": "uint256",
          "name": "",
          "type": "uint256"
        }
      ],
      "stateMutability": "view",
      "type": "function"
    },
    {
      "inputs": [],
      "name": "TOKENS_PER_ETH",
      "outputs": [
        {
          "internalType": "uint256",
          "name": "",
          "type": "uint256"
        }
      ],
      "stateMutability": "view",
      "type": "function"
    },
    {
      "inputs": [
        {
          "internalType": "string",
          "name": "code",
          "type": "string"
        }
      ],
      "name": "applyReferralCode",
      "outputs": [],
      "stateMutability": "nonpayable",
      "type": "function"
    },
    {
      "inputs": [],
      "name": "buyTokens",
      "outputs": [],
      "stateMutability": "payable",
      "type": "function"
    },
    {
      "inputs": [
        {
          "internalType": "address",
          "name": "",
          "type": "address"
        }
      ],
      "name": "contributions",
      "outputs": [
        {
          "internalType": "uint256",
          "name": "",
          "type": "uint256"
        }
      ],
      "stateMutability": "view",
      "type": "function"
    },
    {
      "inputs": [
        {
          "internalType": "address",
          "name": "",
          "type": "address"
        }
      ],
      "name": "hasUsedReferral",
      "outputs": [
        {
          "internalType": "bool",
          "name": "",
          "type": "bool"
        }
      ],
      "stateMutability": "view",
      "type": "function"
    },
    {
      "inputs": [],
      "name": "isPresaleActive",
      "outputs": [
        {
          "internalType": "bool",
          "name": "",
          "type": "bool"
        }
      ],
      "stateMutability": "view",
      "type": "function"
    },
    {
      "inputs": [],
      "name": "maxPurchase",
      "outputs": [
        {
          "internalType": "uint256",
          "name": "",
          "type": "uint256"
        }
      ],
      "stateMutability": "view",
      "type": "function"
    },
    {
      "inputs": [],
      "name": "minPurchase",
      "outputs": [
        {
          "internalType": "uint256",
          "name": "",
          "type": "uint256"
        }
      ],
      "stateMutability": "view",
      "type": "function"
    },
    {
      "inputs": [],
      "name": "owner",
      "outputs": [
        {
          "internalType": "address",
          "name": "",
          "type": "address"
        }
      ],
      "stateMutability": "view",
      "type": "function"
    },
    {
      "inputs": [],
      "name": "renounceOwnership",
      "outputs": [],
      "stateMutability": "nonpayable",
      "type": "function"
    },
    {
      "inputs": [],
      "name": "startPresale",
      "outputs": [],
      "stateMutability": "nonpayable",
      "type": "function"
    },
    {
      "inputs": [],
      "name": "stopPresale",
      "outputs": [],
      "stateMutability": "nonpayable",
      "type": "function"
    },
    {
      "inputs": [],
      "name": "token",
      "outputs": [
        {
          "internalType": "contract IERC20",
          "name": "",
          "type": "address"
        }
      ],
      "stateMutability": "view",
      "type": "function"
    },
    {
      "inputs": [],
      "name": "tokensSold",
      "outputs": [
        {
          "internalType": "uint256",
          "name": "",
          "type": "uint256"
        }
      ],
      "stateMutability": "view",
      "type": "function"
    },
    {
      "inputs": [
        {
          "internalType": "address",
          "name": "newOwner",
          "type": "address"
        }
      ],
      "name": "transferOwnership",
      "outputs": [],
      "stateMutability": "nonpayable",
      "type": "function"
    },
    {
      "inputs": [
        {
          "internalType": "string",
          "name": "",
          "type": "string"
        }
      ],
      "name": "usedReferralCodes",
      "outputs": [
        {
          "internalType": "bool",
          "name": "",
          "type": "bool"
        }
      ],
      "stateMutability": "view",
      "type": "function"
    },
    {
      "inputs": [],
      "name": "withdrawEth",
      "outputs": [],
      "stateMutability": "nonpayable",
      "type": "function"
    },
    {
      "inputs": [],
      "name": "withdrawTokens",
      "outputs": [],
      "stateMutability": "nonpayable",
      "type": "function"
    },
    {
      "stateMutability": "payable",
      "type": "receive"
    }
  ],
  "bytecode": "0x6080604052662386f26fc10000600355678ac7230489e8000060045534801561002757600080fd5b50604051611dbb380380611dbb83398181016040528101906100499190610219565b61006561005a6100ea60201b60201c565b6100f260201b60201c565b6001808190555080600260006101000a81548173ffffffffffffffffffffffffffffffffffffffff021916908373ffffffffffffffffffffffffffffffffffffffff1602179055506000600660006101000a81548160ff0219169083151502179055506100e46100d96100ea60201b60201c565b6100f260201b60201c565b50610246565b600033905090565b60008060009054906101000a900473ffffffffffffffffffffffffffffffffffffffff169050816000806101000a81548173ffffffffffffffffffffffffffffffffffffffff021916908373ffffffffffffffffffffffffffffffffffffffff1602179055508173ffffffffffffffffffffffffffffffffffffffff168173ffffffffffffffffffffffffffffffffffffffff167f8be0079c531659141344cd1fd0a4f28419497f9722a3daafe3b4186f6b6457e060405160405180910390a35050565b600080fd5b600073ffffffffffffffffffffffffffffffffffffffff82169050919050565b60006101e6826101bb565b9050919050565b6101f6816101db565b811461020157600080fd5b50565b600081519050610213816101ed565b92915050565b60006020828403121561022f5761022e6101b6565b5b600061023d84828501610204565b91505092915050565b611b66806102556000396000f3fe6080604052600436106101185760003560e01c806373138e4f116100a0578063a0ef91df11610064578063a0ef91df1461036a578063bc6e660414610381578063d0febe4c146103ac578063f2fde38b146103b6578063fc0c546a146103df57610127565b806373138e4f1461029557806380687cb2146102c05780638d8f2adb146102fd5780638da5cb5b14610314578063977b055b1461033f57610127565b806342e94c90116100e757806342e94c90146101c2578063518ab2a8146101ff57806360d938dc1461022a578063680a7cbc14610255578063715018a61461027e57610127565b806304c98b2b1461012c57806309b5a33a146101435780631ad2ad1a1461018057806333b5b62e1461019757610127565b366101275761012561040a565b005b600080fd5b34801561013857600080fd5b506101416107ad565b005b34801561014f57600080fd5b5061016a6004803603810190610165919061104d565b61080a565b6040516101779190611095565b60405180910390f35b34801561018c57600080fd5b5061019561082a565b005b3480156101a357600080fd5b506101ac610887565b6040516101b991906110c9565b60405180910390f35b3480156101ce57600080fd5b506101e960048036038101906101e4919061104d565b61088d565b6040516101f691906110c9565b60405180910390f35b34801561020b57600080fd5b506102146108a5565b60405161022191906110c9565b60405180910390f35b34801561023657600080fd5b5061023f6108ab565b60405161024c9190611095565b60405180910390f35b34801561026157600080fd5b5061027c6004803603810190610277919061122a565b6108be565b005b34801561028a57600080fd5b50610293610aac565b005b3480156102a157600080fd5b506102aa610ac0565b6040516102b791906110c9565b60405180910390f35b3480156102cc57600080fd5b506102e760048036038101906102e2919061122a565b610ad0565b6040516102f49190611095565b60405180910390f35b34801561030957600080fd5b50610312610b06565b005b34801561032057600080fd5b50610329610c97565b6040516103369190611282565b60405180910390f35b34801561034b57600080fd5b50610354610cc0565b60405161036191906110c9565b60405180910390f35b34801561037657600080fd5b5061037f610cc6565b005b34801561038d57600080fd5b50610396610d8a565b6040516103a391906110c9565b60405180910390f35b6103b461040a565b005b3480156103c257600080fd5b506103dd60048036038101906103d8919061104d565b610d90565b005b3480156103eb57600080fd5b506103f4610e13565b60405161040191906112fc565b60405180910390f35b610412610e39565b600660009054906101000a900460ff16610461576040517f08c379a000000000000000000000000000000000000000000000000000000000815260040161045890611374565b60405180910390fd5b6003543410156104a6576040517f08c379a000000000000000000000000000000000000000000000000000000000815260040161049d906113e0565b60405180910390fd5b6004543411156104eb576040517f08c379a00000000000000000000000000000000000000000000000000000000081526004016104e29061144c565b60405180910390fd5b60045434600760006104fb610e88565b73ffffffffffffffffffffffffffffffffffffffff1673ffffffffffffffffffffffffffffffffffffffff16815260200190815260200160002054610540919061149b565b1115610581576040517f08c379a00000000000000000000000000000000000000000000000000000000081526004016105789061151b565b60405180910390fd5b600061271034610591919061153b565b90506b019d971e4fe8401e74000000816005546105ae919061149b565b11156105ef576040517f08c379a00000000000000000000000000000000000000000000000000000000081526004016105e6906115c9565b60405180910390fd5b34600760006105fc610e88565b73ffffffffffffffffffffffffffffffffffffffff1673ffffffffffffffffffffffffffffffffffffffff1681526020019081526020016000206000828254610645919061149b565b92505081905550806005600082825461065e919061149b565b92505081905550600260009054906101000a900473ffffffffffffffffffffffffffffffffffffffff1673ffffffffffffffffffffffffffffffffffffffff1663a9059cbb6106ab610e88565b836040518363ffffffff1660e01b81526004016106c99291906115e9565b6020604051808303816000875af11580156106e8573d6000803e3d6000fd5b505050506040513d601f19601f8201168201806040525081019061070c919061163e565b61074b576040517f08c379a0000000000000000000000000000000000000000000000000000000008152600401610742906116b7565b60405180910390fd5b610753610e88565b73ffffffffffffffffffffffffffffffffffffffff167f8fafebcaf9d154343dad25669bfa277f4fbacd7ac6b0c4fed522580e040a0f33348360405161079a9291906116d7565b60405180910390a2506107ab610e90565b565b6107b5610e99565b6001600660006101000a81548160ff0219169083151502179055507f1f1a6b0fcc71315f2c3aeddbd1f6d527595d21eea9b73160e78d6fa49b7897a660016040516108009190611095565b60405180910390a1565b60096020528060005260406000206000915054906101000a900460ff1681565b610832610e99565b6000600660006101000a81548160ff0219169083151502179055507f1f1a6b0fcc71315f2c3aeddbd1f6d527595d21eea9b73160e78d6fa49b7897a6600060405161087d9190611095565b60405180910390a1565b60035481565b60076020528060005260406000206000915090505481565b60055481565b600660009054906101000a900460ff1681565b600960006108ca610e88565b73ffffffffffffffffffffffffffffffffffffffff1673ffffffffffffffffffffffffffffffffffffffff16815260200190815260200160002060009054906101000a900460ff1615610952576040517f08c379a00000000000000000000000000000000000000000000000000000000081526004016109499061174c565b60405180910390fd5b60088160405161096291906117dd565b908152602001604051809103902060009054906101000a900460ff16156109be576040517f08c379a00000000000000000000000000000000000000000000000000000000081526004016109b590611840565b60405180910390fd5b60016008826040516109d091906117dd565b908152602001604051809103902060006101000a81548160ff021916908315150217905550600160096000610a03610e88565b73ffffffffffffffffffffffffffffffffffffffff1673ffffffffffffffffffffffffffffffffffffffff16815260200190815260200160002060006101000a81548160ff021916908315150217905550610a5c610e88565b73ffffffffffffffffffffffffffffffffffffffff167fd96c79ac412efed8c5e47f53829077b65a8aa7cf2419f0ae8753674e83f99c0c82604051610aa19190611899565b60405180910390a250565b610ab4610e99565b610abe6000610f17565b565b6b019d971e4fe8401e7400000081565b6008818051602081018201805184825260208301602085012081835280955050505050506000915054906101000a900460ff1681565b610b0e610e99565b6000600260009054906101000a900473ffffffffffffffffffffffffffffffffffffffff1673ffffffffffffffffffffffffffffffffffffffff166370a08231306040518263ffffffff1660e01b8152600401610b6b9190611282565b602060405180830381865afa158015610b88573d6000803e3d6000fd5b505050506040513d601f19601f82011682018060405250810190610bac91906118e7565b9050600260009054906101000a900473ffffffffffffffffffffffffffffffffffffffff1673ffffffffffffffffffffffffffffffffffffffff1663a9059cbb610bf4610c97565b836040518363ffffffff1660e01b8152600401610c129291906115e9565b6020604051808303816000875af1158015610c31573d6000803e3d6000fd5b505050506040513d601f19601f82011682018060405250810190610c55919061163e565b610c94576040517f08c379a0000000000000000000000000000000000000000000000000000000008152600401610c8b906116b7565b60405180910390fd5b50565b60008060009054906101000a900473ffffffffffffffffffffffffffffffffffffffff16905090565b60045481565b610cce610e99565b60004790506000610cdd610c97565b73ffffffffffffffffffffffffffffffffffffffff1682604051610d0090611945565b60006040518083038185875af1925050503d8060008114610d3d576040519150601f19603f3d011682016040523d82523d6000602084013e610d42565b606091505b5050905080610d86576040517f08c379a0000000000000000000000000000000000000000000000000000000008152600401610d7d906119a6565b60405180910390fd5b5050565b61271081565b610d98610e99565b600073ffffffffffffffffffffffffffffffffffffffff168173ffffffffffffffffffffffffffffffffffffffff1603610e07576040517f08c379a0000000000000000000000000000000000000000000000000000000008152600401610dfe90611a38565b60405180910390fd5b610e1081610f17565b50565b600260009054906101000a900473ffffffffffffffffffffffffffffffffffffffff1681565b600260015403610e7e576040517f08c379a0000000000000000000000000000000000000000000000000000000008152600401610e7590611aa4565b60405180910390fd5b6002600181905550565b600033905090565b60018081905550565b610ea1610e88565b73ffffffffffffffffffffffffffffffffffffffff16610ebf610c97565b73ffffffffffffffffffffffffffffffffffffffff1614610f15576040517f08c379a0000000000000000000000000000000000000000000000000000000008152600401610f0c90611b10565b60405180910390fd5b565b60008060009054906101000a900473ffffffffffffffffffffffffffffffffffffffff169050816000806101000a81548173ffffffffffffffffffffffffffffffffffffffff021916908373ffffffffffffffffffffffffffffffffffffffff1602179055508173ffffffffffffffffffffffffffffffffffffffff168173ffffffffffffffffffffffffffffffffffffffff167f8be0079c531659141344cd1fd0a4f28419497f9722a3daafe3b4186f6b6457e060405160405180910390a35050565b6000604051905090565b600080fd5b600080fd5b600073ffffffffffffffffffffffffffffffffffffffff82169050919050565b600061101a82610fef565b9050919050565b61102a8161100f565b811461103557600080fd5b50565b60008135905061104781611021565b92915050565b60006020828403121561106357611062610fe5565b5b600061107184828501611038565b91505092915050565b60008115159050919050565b61108f8161107a565b82525050565b60006020820190506110aa6000830184611086565b92915050565b6000819050919050565b6110c3816110b0565b82525050565b60006020820190506110de60008301846110ba565b92915050565b600080fd5b600080fd5b6000601f19601f8301169050919050565b7f4e487b7100000000000000000000000000000000000000000000000000000000600052604160045260246000fd5b611137826110ee565b810181811067ffffffffffffffff82111715611156576111556110ff565b5b80604052505050565b6000611169610fdb565b9050611175828261112e565b919050565b600067ffffffffffffffff821115611195576111946110ff565b5b61119e826110ee565b9050602081019050919050565b82818337600083830152505050565b60006111cd6111c88461117a565b61115f565b9050828152602081018484840111156111e9576111e86110e9565b5b6111f48482856111ab565b509392505050565b600082601f830112611211576112106110e4565b5b81356112218482602086016111ba565b91505092915050565b6000602082840312156112405761123f610fe5565b5b600082013567ffffffffffffffff81111561125e5761125d610fea565b5b61126a848285016111fc565b91505092915050565b61127c8161100f565b82525050565b60006020820190506112976000830184611273565b92915050565b6000819050919050565b60006112c26112bd6112b884610fef565b61129d565b610fef565b9050919050565b60006112d4826112a7565b9050919050565b60006112e6826112c9565b9050919050565b6112f6816112db565b82525050565b600060208201905061131160008301846112ed565b92915050565b600082825260208201905092915050565b7f50726573616c65206973206e6f74206163746976650000000000000000000000600082015250565b600061135e601583611317565b915061136982611328565b602082019050919050565b6000602082019050818103600083015261138d81611351565b9050919050565b7f42656c6f77206d696e696d756d20707572636861736520616d6f756e74000000600082015250565b60006113ca601d83611317565b91506113d582611394565b602082019050919050565b600060208201905081810360008301526113f9816113bd565b9050919050565b7f45786365656473206d6178696d756d20707572636861736520616d6f756e7400600082015250565b6000611436601f83611317565b915061144182611400565b602082019050919050565b6000602082019050818103600083015261146581611429565b9050919050565b7f4e487b7100000000000000000000000000000000000000000000000000000000600052601160045260246000fd5b60006114a6826110b0565b91506114b1836110b0565b92508282019050808211156114c9576114c861146c565b5b92915050565b7f576f756c6420657863656564206d617820636f6e747269627574696f6e000000600082015250565b6000611505601d83611317565b9150611510826114cf565b602082019050919050565b60006020820190508181036000830152611534816114f8565b9050919050565b6000611546826110b0565b9150611551836110b0565b925082820261155f816110b0565b915082820484148315176115765761157561146c565b5b5092915050565b7f457863656564732070726573616c6520737570706c7900000000000000000000600082015250565b60006115b3601683611317565b91506115be8261157d565b602082019050919050565b600060208201905081810360008301526115e2816115a6565b9050919050565b60006040820190506115fe6000830185611273565b61160b60208301846110ba565b9392505050565b61161b8161107a565b811461162657600080fd5b50565b60008151905061163881611612565b92915050565b60006020828403121561165457611653610fe5565b5b600061166284828501611629565b91505092915050565b7f546f6b656e207472616e73666572206661696c65640000000000000000000000600082015250565b60006116a1601583611317565b91506116ac8261166b565b602082019050919050565b600060208201905081810360008301526116d081611694565b9050919050565b60006040820190506116ec60008301856110ba565b6116f960208301846110ba565b9392505050565b7f416c72656164792075736564206120726566657272616c20636f646500000000600082015250565b6000611736601c83611317565b915061174182611700565b602082019050919050565b6000602082019050818103600083015261176581611729565b9050919050565b600081519050919050565b600081905092915050565b60005b838110156117a0578082015181840152602081019050611785565b60008484015250505050565b60006117b78261176c565b6117c18185611777565b93506117d1818560208601611782565b80840191505092915050565b60006117e982846117ac565b915081905092915050565b7f526566657272616c20636f646520616c72656164792075736564000000000000600082015250565b600061182a601a83611317565b9150611835826117f4565b602082019050919050565b600060208201905081810360008301526118598161181d565b9050919050565b600061186b8261176c565b6118758185611317565b9350611885818560208601611782565b61188e816110ee565b840191505092915050565b600060208201905081810360008301526118b38184611860565b905092915050565b6118c4816110b0565b81146118cf57600080fd5b50565b6000815190506118e1816118bb565b92915050565b6000602082840312156118fd576118fc610fe5565b5b600061190b848285016118d2565b91505092915050565b600081905092915050565b50565b600061192f600083611914565b915061193a8261191f565b600082019050919050565b600061195082611922565b9150819050919050565b7f4661696c656420746f2077697468647261772045544800000000000000000000600082015250565b6000611990601683611317565b915061199b8261195a565b602082019050919050565b600060208201905081810360008301526119bf81611983565b9050919050565b7f4f776e61626c653a206e6577206f776e657220697320746865207a65726f206160008201527f6464726573730000000000000000000000000000000000000000000000000000602082015250565b6000611a22602683611317565b9150611a2d826119c6565b604082019050919050565b60006020820190508181036000830152611a5181611a15565b9050919050565b7f5265656e7472616e637947756172643a207265656e7472616e742063616c6c00600082015250565b6000611a8e601f83611317565b9150611a9982611a58565b602082019050919050565b60006020820190508181036000830152611abd81611a81565b9050919050565b7f4f776e61626c653a2063616c6c6572206973206e6f7420746865206f776e6572600082015250565b6000611afa602083611317565b9150611b0582611ac4565b602082019050919050565b60006020820190508181036000830152611b2981611aed565b905091905056fea2646970667358221220a0d2990283dedd2ef69eed2db10f2e099d3400bcf38f0e17125acc3ed8685f7a64736f6c634300081c0033",
  "linkReferences": {},
  "deployedLinkReferences": {}
}